:10000000A3C00000BCC00000BAC00000B8C000001F
:10001000B6C00000B4C00000B2C00000B0C0000014
:10002000AEC00000ACC00000AAC000002BC10000A0
:1000300053C10000A4C00000A2C00000A0C0000086
:100040009EC000009CC000009AC0000098C0000044
:1000500096C0000094C0000092C0000090C0000054
:100060008EC000008CC000008AC0000088C0000064
:1000700086C000000032C112C0120001000035012C
:1000800012000200000C0129002100001E010900DD
:10009000220000D7003500030000D300040103094B
:1000A00004C7000A02030904AB001A1A03480049F6
:1000B00000440049004F005F00530041004D0050D4
:1000C000004C00450000000A03440053004B004B65
:1000D0000000000403090406FFFF0901A101090251
:1000E0000903150026FF0075089508810209040917
:1000F00005150026FF0075089508910209060907F5
:10010000150026FF0075089504B102C009022900F8
:1001100001010080320904000002030000000921EF
:100120001101000122350007058103400004070585
:1001300002034000041201000200000040EB031320
:10014000200010010200010011241FBECFEFD2E0F9
:10015000DEBFCDBF11E0A0E0B1E0E0EFF4E002C00F
:1001600005900D92A230B107D9F721E0A2E0B1E0ED
:1001700001C01D92A430B207E1F702D0B7C140CF51
:1001800080B7806880BF80E8809361001092610032
:100190008FEF84B988B98BB961D08091020188232F
:1001A000E1F32FEF83ED90E3215080409040E1F7A1
:1001B00000C0000032E04AE251E02AE380910201EF
:1001C0008823C1F09FB7F8943093E9008091E8004C
:1001D00085FF0FC08091E80085FF09C08091F20083
:1001E0008823C1F36091F10065B98150F9CF409344
:1001F000E8009FBF80910201882301F39FB7F89424
:100200005093E9008091E80085FF21C086B180937A
:10021000F10086B18F5F8093F10086B18E5F80938D
:10022000F10086B18D5F8093F10086B18C5F809381
:10023000F10086B18B5F8093F10086B18A5F809375
:10024000F10086B1895F8093F1002093E8009FBFA1
:10025000B5CF8091E80080FFFCCF089580EA8093BD
:10026000D80086E089BD09B400FEFDCF80E8809308
:10027000D8001092E000109202018CE08093E2001E
:10028000789408951F920F920FB60F9211248F93B6
:10029000EF93FF938091E1001092E10083FF14C07F
:1002A0001092E90081E08093EB00E4E7F0E0E49154
:1002B000E093EC00E5E7F0E0E491E093ED0088E006
:1002C0008093F00010920201FF91EF918F910F90B7
:1002D0000FBE0F901F9018951F920F920FB60F929E
:1002E00011242F933F934F935F936F937F938F933B
:1002F0009F93AF93BF93CF93DF93EF93FF931092AE
:10030000E9008091E80083FFDBC09091F1008091CB
:10031000F100C091F1002091F100D0E0D22B40918A
:10032000F1007091F1002091F1006091F10032EF45
:100330003093E800392F307609F099C0863009F003
:100340004AC050E0572B8AE790E0FC01A591B49198
:10035000CA17DB07D9F4FC013296A591B4914A176C
:100360005B07A1F4FC01349645915491FC0136964B
:10037000849130E0362B2F3F310519F010F02FEF2C
:1003800030E0281708F4822F3EEF0DC0079630E0CA
:100390008B3A9307D1F694C0490F511D891B3093B6
:1003A000E8008823A9F09091E800292F2570D9F35F
:1003B00092FD89C0982F813408F090E4FA01292F2A
:1003C000222351F364916093F10021503196F8CFCC
:1003D000903449F378C0893071F597FD71C09F71F1
:1003E00009F06EC0C09302018EEF8093E80081E0B7
:1003F0008093E9008093EB00E6E7F0E0E491E0937E
:10040000EC00E7E7F0E0E491E093ED0092E09093F8
:10041000E9008093EB00E8E7F0E0E491E093EC0082
:10042000E9E7F0E0E491E093ED008EE18093EA00EB
:100430001092EA0048C0853041F48EEF8093E800C6
:1004400008DFC068C093E3003EC0883041F497FFE6
:1004500037C09F71A9F5FDDE8091020117C081119F
:100460002FC0F7DE1092F1001092F10025C030325B
:1004700039F597FF0EC0823021F4EBDE8091030145
:1004800005C08330E9F4E5DE809100018093F1003E
:1004900013C0893041F48091E80082FFFCCF8BEFDC
:1004A0008093E80009C08A3019F4D093030104C096
:1004B0008B3031F4C09300018EEF8093E80003C0CD
:1004C00081E28093EB00FF91EF91DF91CF91BF919B
:1004D000AF919F918F917F916F915F914F913F91DC
:1004E0002F910F900FBE0F901F901895F894FFCF8B
:0204F000010009
:00000001FF
