:10000000AEC00000C7C00000C5C00000C3C00000F3
:10001000C1C00000BFC00000BDC00000BBC00000E8
:10002000B9C00000B7C0000011C1000039C1000014
:10003000B1C00000AFC00000ADC00000ABC0000008
:10004000A9C00000A7C00000A5C00000A3C0000018
:10005000A1C000009FC000009DC000009BC0000028
:1000600099C0000097C0000095C0000093C0000038
:1000700091C000008FC000008DC000008BC0000048
:1000800089C0000087C0000085C0000083C0000058
:1000900081C000007FC000000032C13600010000B6
:1000A0004B011200020000290122002100003B0147
:1000B0000900220000FD002C00030000F9000401EB
:1000C000030904ED000A02030904CD001E1E0347C4
:1000D0000041004D0045005000410044005F0053C6
:1000E0000041004D0050004C00450000000A034450
:1000F0000053004B004B00000004030904050109F4
:1001000004A1010901A1000501093009311581256A
:100110007F7508950281020509190129101500252E
:1001200001750195108102C0C00902220001010081
:1001300080320904000001030000000921110100C0
:1001400001222C0007058103400004120100020077
:10015000000040EB031320001001020001001124F5
:100160001FBECFEFD0E1DEBFCDBF11E0A0E0B1E018
:10017000EAE9F4E002C005900D92A230B107D9F788
:1001800021E0A2E0B1E001C01D92A430B207E1F786
:1001900002D081C135CF80B7806880BF80E890E011
:1001A00085BF85BF80E880936100109261008FEF6A
:1001B00082B985B988B98BB98EB981BB30D08091AD
:1001C00002018823E1F32FEF83ED90E3215080407B
:1001D0009040E1F700C0000031E09AE38091020115
:1001E0008823E1F38FB7F8943093E9002091E80079
:1001F00025FF0EC020B12093F10023B12093F10020
:1002000026B12093F10029B12093F1009093E800EA
:100210008FBFE4CF8091E80080FFFCCF089581E894
:100220008093D70080EA8093D8008AE189BD09B421
:1002300000FEFDCF80E98093D8001092E00010927C
:1002400002018CE08093E200789408951F920F924F
:100250000FB60F9211248F93EF93FF938091E100DB
:100260001092E10083FF14C01092E90081E08093B6
:10027000EB00E8E9F0E0E491E093EC00E9E9F0E07C
:10028000E491E093ED0088E08093F0001092020189
:10029000FF91EF918F910F900FBE0F901F901895C7
:1002A0001F920F920FB60F9211242F933F934F93EB
:1002B0005F936F937F938F939F93AF93BF93CF93EE
:1002C000DF93EF93FF931092E9008091E80083FFA2
:1002D000CCC09091F1008091F100C091F10020918B
:1002E000F100D0E0D22B4091F1007091F10020910B
:1002F000F1006091F10032EF3093E800392F307651
:1003000009F08AC0863009F04AC050E0572B8CE9CA
:1003100090E0FC01A591B491CA17DB07D9F4FC0168
:100320003296A591B4914A175B07A1F4FC0134966B
:1003300045915491FC013696849130E0362B2F3F45
:10034000310519F010F02FEF30E0281708F4822F54
:100350003EEF0DC0079630E08D3C9307D1F685C087
:10036000490F511D891B3093E8008823A9F0909113
:10037000E800292F2570D9F392FD7AC0982F813497
:1003800008F090E4FA01292F222351F3649160933D
:10039000F10021503196F8CF903449F369C089308B
:1003A000F9F497FD62C09F7109F05FC0C09302012C
:1003B0008EEF8093E80081E08093E9008093EB006A
:1003C000EAE9F0E0E491E093EC00EBE9F0E0E4919D
:1003D000E093ED008EE18093EA001092EA0048C0BD
:1003E000853041F48EEF8093E80014DFC068C0933D
:1003F000E3003EC0883041F497FF37C09F71A9F5F4
:1004000009DF8091020117C081112FC003DF109214
:10041000F1001092F10025C0303239F597FF0EC07F
:10042000823021F4F7DE8091030105C08330E9F4C6
:10043000F1DE809100018093F10013C0893041F416
:100440008091E80082FFFCCF8BEF8093E80009C029
:100450008A3019F4D093030104C08B3031F4C09377
:1004600000018EEF8093E80003C081E28093EB00EF
:10047000FF91EF91DF91CF91BF91AF919F918F91BC
:100480007F916F915F914F913F912F910F900FBE90
:0A0490000F901F901895F894FFCF0D
:02049A0001005F
:00000001FF
