:10000000B5C00000CEC00000CCC00000CAC00000D7
:10001000C8C00000C6C00000C4C00000C2C00000CC
:10002000C0C00000BEC000004AC1000072C1000094
:10003000B8C00000B6C00000B4C00000B2C00000EC
:10004000B0C00000AEC00000ACC00000AAC00000FC
:10005000A8C00000A6C00000A4C00000A2C000000C
:10006000A0C000009EC000009CC000009AC000001C
:1000700098C0000096C0000094C0000092C000002C
:1000800090C000008EC000008CC000008AC000003C
:1000900088C0000086C000000032C136C0360001B2
:1000A0000000590112000200003001290021000067
:1000B00042010900220000FB003500030000F700A8
:1000C0000401030904EB000A02030904CF001A1A11
:1000D0000348004900440049004F005F00530041BD
:1000E000004D0050004C00450000000A034400533E
:1000F000004B004B0000000403090406FFFF090148
:10010000A10109020903150026FF00750895088161
:100110000209040905150026FF00750895089102DB
:1001200009060907150026FF0075089504B102C0ED
:1001300009022900010100803209040000020300C5
:10014000000009211101000122350007058103404B
:100150000004070502034000041201000200000031
:1001600040EB0313200010010200010011241FBE08
:10017000CFEFD0E1DEBFCDBF11E0A0E0B1E0EAE219
:10018000F5E002C005900D92A230B107D9F721E049
:10019000A2E0B1E001C01D92A430B207E1F702D0A5
:1001A000C2C12ECF80B7806880BF80E890E085BF55
:1001B00085BF80E880936100109261008FEF8AB95B
:1001C00082B985B988B91BB88EB981BB61D08091DD
:1001D00002018823E1F32FEF83ED90E3215080406B
:1001E0009040E1F700C0000032E04AE251E02AE32B
:1001F000809102018823C1F09FB7F8943093E90001
:100200008091E80085FF0FC08091E80085FF09C05C
:100210008091F2008823C1F36091F1006BB98150A5
:10022000F9CF4093E8009FBF80910201882301F33A
:100230009FB7F8945093E9008091E80085FF21C0B2
:1002400080B18093F10080B18F5F8093F10080B125
:100250008E5F8093F10080B18D5F8093F10080B15B
:100260008C5F8093F10080B18B5F8093F10080B14F
:100270008A5F8093F10080B1895F8093F1002093C1
:10028000E8009FBFB5CF8091E80080FFFCCF0895C4
:1002900081E88093D70080EA8093D8008AE189BD05
:1002A00009B400FEFDCF80E98093D8001092E000F1
:1002B000109202018CE08093E200789408951F92DE
:1002C0000F920FB60F9211248F93EF93FF938091AB
:1002D000E1001092E10083FF14C01092E90081E078
:1002E0008093EB00E8E9F0E0E491E093EC00E9E9C9
:1002F000F0E0E491E093ED0088E08093F00010924C
:100300000201FF91EF918F910F900FBE0F901F9000
:1003100018951F920F920FB60F9211242F933F93AF
:100320004F935F936F937F938F939F93AF93BF93FD
:10033000CF93DF93EF93FF931092E9008091E80051
:1003400083FFDBC09091F1008091F100C091F1003A
:100350002091F100D0E0D22B4091F1007091F1009A
:100360002091F1006091F10032EF3093E800392FD5
:10037000307609F099C0863009F04AC050E0572B1A
:100380008EE990E0FC01A591B491CA17DB07D9F47E
:10039000FC013296A591B4914A175B07A1F4FC01C8
:1003A000349645915491FC013696849130E0362B79
:1003B0002F3F310519F010F02FEF30E0281708F427
:1003C000822F3EEF0DC0079630E08F3C9307D1F6A9
:1003D00094C0490F511D891B3093E8008823A9F070
:1003E0009091E800292F2570D9F392FD89C0982FAC
:1003F000813408F090E4FA01292F222351F364910B
:100400006093F10021503196F8CF903449F378C0D1
:10041000893071F597FD71C09F7109F06EC0C0936E
:1004200002018EEF8093E80081E08093E9008093E1
:10043000EB00EAE9F0E0E491E093EC00EBE9F0E0B6
:10044000E491E093ED0092E09093E9008093EB005B
:10045000ECE9F0E0E491E093EC00EDE9F0E0E49108
:10046000E093ED008EE18093EA001092EA0048C02C
:10047000853041F48EEF8093E80005DFC068C093BB
:10048000E3003EC0883041F497FF37C09F71A9F563
:10049000FADE8091020117C081112FC0F4DE1092A4
:1004A000F1001092F10025C0303239F597FF0EC0EF
:1004B000823021F4E8DE8091030105C08330E9F445
:1004C000E2DE809100018093F10013C0893041F495
:1004D0008091E80082FFFCCF8BEF8093E80009C099
:1004E0008A3019F4D093030104C08B3031F4C093E7
:1004F00000018EEF8093E80003C081E28093EB005F
:10050000FF91EF91DF91CF91BF91AF919F918F912B
:100510007F916F915F914F913F912F910F900FBEFF
:0A0520000F901F901895F894FFCF7C
:02052A000100CE
:00000001FF
